:060000000A128A118A2F8A
:100F140083010A128A11BF2FF00070088312031391
:100F24009900942F0C1E972F982F942F0C120800C1
:100F3400831203139014101690163C308F00B030B7
:100F44008E001014A52F0C1CA82FA92FA52F0C1050
:100F540010100800831603130713871798018312D0
:100F6400031398011F3083160313990098168312F4
:100F7400031398170C128C1208000A128A11AC275A
:100F84000A128A114C300A128A118E270A128A1107
:100F94000A128A119A270A128A1169300A128A11CE
:100FA4008E270A128A110A128A119A270A128A11A2
:100FB4006E300A128A118E270A128A110A128A11B5
:100FC4009A270A128A1175300A128A118E270A1278
:100FD4008A110A128A119A270A128A1178300A127F
:100FE4008A118E270A128A110A128A119A270A1262
:0C0FF4008A11FC2FFC2F0A128A11002821
:02400E007AFF37
:00000001FF
